{
  "contractName": "TestDyDxSoloMargin",
  "abi": [
    {
      "anonymous": false,
      "inputs": [
        {
          "indexed": false,
          "internalType": "string",
          "name": "message",
          "type": "string"
        },
        {
          "indexed": false,
          "internalType": "uint256",
          "name": "val",
          "type": "uint256"
        }
      ],
      "name": "Log",
      "type": "event"
    },
    {
      "inputs": [],
      "name": "flashUser",
      "outputs": [
        {
          "internalType": "address",
          "name": "",
          "type": "address"
        }
      ],
      "stateMutability": "view",
      "type": "function"
    },
    {
      "inputs": [
        {
          "internalType": "address",
          "name": "_token",
          "type": "address"
        },
        {
          "internalType": "uint256",
          "name": "_amount",
          "type": "uint256"
        }
      ],
      "name": "initiateFlashLoan",
      "outputs": [],
      "stateMutability": "nonpayable",
      "type": "function"
    },
    {
      "inputs": [
        {
          "internalType": "address",
          "name": "sender",
          "type": "address"
        },
        {
          "components": [
            {
              "internalType": "address",
              "name": "owner",
              "type": "address"
            },
            {
              "internalType": "uint256",
              "name": "number",
              "type": "uint256"
            }
          ],
          "internalType": "struct Account.Info",
          "name": "account",
          "type": "tuple"
        },
        {
          "internalType": "bytes",
          "name": "data",
          "type": "bytes"
        }
      ],
      "name": "callFunction",
      "outputs": [],
      "stateMutability": "nonpayable",
      "type": "function"
    }
  ],
  "bytecode": "0x608060405234801561001057600080fd5b50611c3d806100206000396000f3fe608060405234801561001057600080fd5b50600436106100415760003560e01c80635e2c1b3a146100465780638b41871314610062578063f9d5bbfc1461007e575b600080fd5b610060600480360381019061005b91906110ae565b61009c565b005b61007c60048036038101906100779190611047565b61047c565b005b610086610759565b6040516100939190611661565b60405180910390f35b6000731e0447b19bb6ecfdae1e4ae1694b0c3659614e4e905060006100d5731e0447b19bb6ecfdae1e4ae1694b0c3659614e4e8561077d565b905060006100e284610935565b90508473ffffffffffffffffffffffffffffffffffffffff1663095ea7b3731e0447b19bb6ecfdae1e4ae1694b0c3659614e4e836040518363ffffffff1660e01b815260040161013392919061167c565b602060405180830381600087803b15801561014d57600080fd5b505af1158015610161573d6000803e3d6000fd5b505050506040513d601f19601f8201168201806040525081019061018591906110ea565b506000600367ffffffffffffffff8111156101c9577f4e487b7100000000000000000000000000000000000000000000000000000000600052604160045260246000fd5b60405190808252806020026020018201604052801561020257816020015b6101ef610d52565b8152602001906001900390816101e75790505b50905061020f8386610952565b81600081518110610249577f4e487b7100000000000000000000000000000000000000000000000000000000600052603260045260246000fd5b60200260200101819052506102a660405180604001604052808873ffffffffffffffffffffffffffffffffffffffff1681526020018481525060405160200161029291906117e6565b604051602081830303815290604052610a92565b816001815181106102e0577f4e487b7100000000000000000000000000000000000000000000000000000000600052603260045260246000fd5b60200260200101819052506102f58383610bc3565b8160028151811061032f577f4e487b7100000000000000000000000000000000000000000000000000000000600052603260045260246000fd5b60200260200101819052506000600167ffffffffffffffff81111561037d577f4e487b7100000000000000000000000000000000000000000000000000000000600052604160045260246000fd5b6040519080825280602002602001820160405280156103b657816020015b6103a3610deb565b81526020019060019003908161039b5790505b5090506103c1610d03565b816000815181106103fb577f4e487b7100000000000000000000000000000000000000000000000000000000600052603260045260246000fd5b60200260200101819052508473ffffffffffffffffffffffffffffffffffffffff1663a67a6a4582846040518363ffffffff1660e01b81526004016104419291906116a5565b600060405180830381600087803b15801561045b57600080fd5b505af115801561046f573d6000803e3d6000fd5b5050505050505050505050565b731e0447b19bb6ecfdae1e4ae1694b0c3659614e4e73ffffffffffffffffffffffffffffffffffffffff163373ffffffffffffffffffffffffffffffffffffffff16146104fe576040517f08c379a00000000000000000000000000000000000000000000000000000000081526004016104f5906116dc565b60405180910390fd5b3073ffffffffffffffffffffffffffffffffffffffff168373ffffffffffffffffffffffffffffffffffffffff161461056c576040517f08c379a0000000000000000000000000000000000000000000000000000000008152600401610563906116fc565b60405180910390fd5b6000818060200190518101906105829190611113565b90506000816020015190506000826000015173ffffffffffffffffffffffffffffffffffffffff166370a08231306040518263ffffffff1660e01b81526004016105cc9190611661565b60206040518083038186803b1580156105e457600080fd5b505afa1580156105f8573d6000803e3d6000fd5b505050506040513d601f19601f8201168201806040525081019061061c919061113c565b905081811015610661576040517f08c379a000000000000000000000000000000000000000000000000000000000815260040161065890611798565b60405180910390fd5b856000806101000a81548173ffffffffffffffffffffffffffffffffffffffff021916908373ffffffffffffffffffffffffffffffffffffffff1602179055507fdd970dd9b5bfe707922155b058a407655cb18288b807e2216442bca8ad83d6b5816040516106d0919061171c565b60405180910390a17fdd970dd9b5bfe707922155b058a407655cb18288b807e2216442bca8ad83d6b58260405161070791906117b8565b60405180910390a17fdd970dd9b5bfe707922155b058a407655cb18288b807e2216442bca8ad83d6b5828261073c9190611972565b604051610749919061176a565b60405180910390a1505050505050565b60008054906101000a900473ffffffffffffffffffffffffffffffffffffffff1681565b60008083905060008173ffffffffffffffffffffffffffffffffffffffff1663295c39a56040518163ffffffff1660e01b815260040160206040518083038186803b1580156107cb57600080fd5b505afa1580156107df573d6000803e3d6000fd5b505050506040513d601f19601f82011682018060405250810190610803919061113c565b9050600080600090505b828110156108f3578373ffffffffffffffffffffffffffffffffffffffff1663062bd3e9826040518263ffffffff1660e01b815260040161084e9190611801565b60206040518083038186803b15801561086657600080fd5b505afa15801561087a573d6000803e3d6000fd5b505050506040513d601f19601f8201168201806040525081019061089e919061101e565b91508573ffffffffffffffffffffffffffffffffffffffff168273ffffffffffffffffffffffffffffffffffffffff1614156108e0578094505050505061092f565b80806108eb90611a9f565b91505061080d565b506040517f08c379a00000000000000000000000000000000000000000000000000000000081526004016109269061174a565b60405180910390fd5b92915050565b600061094b600283610d3c90919063ffffffff16565b9050919050565b61095a610d52565b604051806101000160405280600160088111156109a0577f4e487b7100000000000000000000000000000000000000000000000000000000600052602160045260246000fd5b8152602001600081526020016040518060800160405280600015158152602001600060018111156109fa577f4e487b7100000000000000000000000000000000000000000000000000000000600052602160045260246000fd5b815260200160006001811115610a39577f4e487b7100000000000000000000000000000000000000000000000000000000600052602160045260246000fd5b8152602001858152508152602001848152602001600081526020013073ffffffffffffffffffffffffffffffffffffffff1681526020016000815260200160405180602001604052806000815250815250905092915050565b610a9a610d52565b604051806101000160405280600880811115610adf577f4e487b7100000000000000000000000000000000000000000000000000000000600052602160045260246000fd5b815260200160008152602001604051806080016040528060001515815260200160006001811115610b39577f4e487b7100000000000000000000000000000000000000000000000000000000600052602160045260246000fd5b815260200160006001811115610b78577f4e487b7100000000000000000000000000000000000000000000000000000000600052602160045260246000fd5b81526020016000815250815260200160008152602001600081526020013073ffffffffffffffffffffffffffffffffffffffff16815260200160008152602001838152509050919050565b610bcb610d52565b60405180610100016040528060006008811115610c11577f4e487b7100000000000000000000000000000000000000000000000000000000600052602160045260246000fd5b815260200160008152602001604051806080016040528060011515815260200160006001811115610c6b577f4e487b7100000000000000000000000000000000000000000000000000000000600052602160045260246000fd5b815260200160006001811115610caa577f4e487b7100000000000000000000000000000000000000000000000000000000600052602160045260246000fd5b8152602001858152508152602001848152602001600081526020013073ffffffffffffffffffffffffffffffffffffffff1681526020016000815260200160405180602001604052806000815250815250905092915050565b610d0b610deb565b60405180604001604052803073ffffffffffffffffffffffffffffffffffffffff1681526020016001815250905090565b60008183610d4a919061191c565b905092915050565b60405180610100016040528060006008811115610d98577f4e487b7100000000000000000000000000000000000000000000000000000000600052602160045260246000fd5b815260200160008152602001610dac610e1b565b81526020016000815260200160008152602001600073ffffffffffffffffffffffffffffffffffffffff16815260200160008152602001606081525090565b6040518060400160405280600073ffffffffffffffffffffffffffffffffffffffff168152602001600081525090565b604051806080016040528060001515815260200160006001811115610e69577f4e487b7100000000000000000000000000000000000000000000000000000000600052602160045260246000fd5b815260200160006001811115610ea8577f4e487b7100000000000000000000000000000000000000000000000000000000600052602160045260246000fd5b8152602001600081525090565b6000610ec8610ec38461184d565b61181c565b905082815260208101848484011115610ee057600080fd5b610eeb848285611a5d565b509392505050565b600081359050610f0281611bc2565b92915050565b600081519050610f1781611bc2565b92915050565b600081519050610f2c81611bd9565b92915050565b600082601f830112610f4357600080fd5b8135610f53848260208601610eb5565b91505092915050565b600060408284031215610f6e57600080fd5b610f78604061181c565b90506000610f8884828501610ef3565b6000830152506020610f9c84828501610ff4565b60208301525092915050565b600060408284031215610fba57600080fd5b610fc4604061181c565b90506000610fd484828501610f08565b6000830152506020610fe884828501611009565b60208301525092915050565b60008135905061100381611bf0565b92915050565b60008151905061101881611bf0565b92915050565b60006020828403121561103057600080fd5b600061103e84828501610f08565b91505092915050565b60008060006080848603121561105c57600080fd5b600061106a86828701610ef3565b935050602061107b86828701610f5c565b925050606084013567ffffffffffffffff81111561109857600080fd5b6110a486828701610f32565b9150509250925092565b600080604083850312156110c157600080fd5b60006110cf85828601610ef3565b92505060206110e085828601610ff4565b9150509250929050565b6000602082840312156110fc57600080fd5b600061110a84828501610f1d565b91505092915050565b60006040828403121561112557600080fd5b600061113384828501610fa8565b91505092915050565b60006020828403121561114e57600080fd5b600061115c84828501611009565b91505092915050565b600061117183836114dd565b905092915050565b600061118583836115e5565b60408301905092915050565b61119a816119a6565b82525050565b6111a9816119a6565b82525050565b60006111ba8261189d565b6111c481856118d8565b9350836020820285016111d68561187d565b8060005b8581101561121257848403895281516111f38582611165565b94506111fe836118be565b925060208a019950506001810190506111da565b50829750879550505050505092915050565b600061122f826118a8565b61123981856118e9565b93506112448361188d565b8060005b8381101561127557815161125c8882611179565b9750611267836118cb565b925050600181019050611248565b5085935050505092915050565b61128b816119b8565b82525050565b600061129c826118b3565b6112a681856118fa565b93506112b6818560208601611a6c565b6112bf81611b75565b840191505092915050565b6112d381611a27565b82525050565b6112e281611a39565b82525050565b6112f181611a4b565b82525050565b600061130460058361190b565b91507f21736f6c6f0000000000000000000000000000000000000000000000000000006000830152602082019050919050565b6000611344600e8361190b565b91507f217468697320636f6e74726163740000000000000000000000000000000000006000830152602082019050919050565b600061138460038361190b565b91507f62616c00000000000000000000000000000000000000000000000000000000006000830152602082019050919050565b60006113c460248361190b565b91507f4e6f206d61726b6574496420666f756e6420666f722070726f7669646564207460008301527f6f6b656e000000000000000000000000000000000000000000000000000000006020830152604082019050919050565b600061142a600b8361190b565b91507f62616c202d2072657061790000000000000000000000000000000000000000006000830152602082019050919050565b600061146a600b8361190b565b91507f62616c203c2072657061790000000000000000000000000000000000000000006000830152602082019050919050565b60006114aa60058361190b565b91507f72657061790000000000000000000000000000000000000000000000000000006000830152602082019050919050565b6000610160830160008301516114f660008601826112ca565b5060208301516115096020860182611643565b50604083015161151c6040860182611590565b50606083015161152f60c0860182611643565b50608083015161154260e0860182611643565b5060a0830151611556610100860182611191565b5060c083015161156a610120860182611643565b5060e08301518482036101408601526115838282611291565b9150508091505092915050565b6080820160008201516115a66000850182611282565b5060208201516115b960208501826112d9565b5060408201516115cc60408501826112e8565b5060608201516115df6060850182611643565b50505050565b6040820160008201516115fb6000850182611191565b50602082015161160e6020850182611643565b50505050565b60408201600082015161162a6000850182611191565b50602082015161163d6020850182611643565b50505050565b61164c81611a1d565b82525050565b61165b81611a1d565b82525050565b600060208201905061167660008301846111a0565b92915050565b600060408201905061169160008301856111a0565b61169e6020830184611652565b9392505050565b600060408201905081810360008301526116bf8185611224565b905081810360208301526116d381846111af565b90509392505050565b600060208201905081810360008301526116f5816112f7565b9050919050565b6000602082019050818103600083015261171581611337565b9050919050565b6000604082019050818103600083015261173581611377565b90506117446020830184611652565b92915050565b60006020820190508181036000830152611763816113b7565b9050919050565b600060408201905081810360008301526117838161141d565b90506117926020830184611652565b92915050565b600060208201905081810360008301526117b18161145d565b9050919050565b600060408201905081810360008301526117d18161149d565b90506117e06020830184611652565b92915050565b60006040820190506117fb6000830184611614565b92915050565b60006020820190506118166000830184611652565b92915050565b6000604051905081810181811067ffffffffffffffff8211171561184357611842611b46565b5b8060405250919050565b600067ffffffffffffffff82111561186857611867611b46565b5b601f19601f8301169050602081019050919050565b6000819050602082019050919050565b6000819050602082019050919050565b600081519050919050565b600081519050919050565b600081519050919050565b6000602082019050919050565b6000602082019050919050565b600082825260208201905092915050565b600082825260208201905092915050565b600082825260208201905092915050565b600082825260208201905092915050565b600061192782611a1d565b915061193283611a1d565b9250827fffffffffffffffffffffffffffffffffffffffffffffffffffffffffffffffff0382111561196757611966611ae8565b5b828201905092915050565b600061197d82611a1d565b915061198883611a1d565b92508282101561199b5761199a611ae8565b5b828203905092915050565b60006119b1826119fd565b9050919050565b60008115159050919050565b60008190506119d282611b86565b919050565b60008190506119e582611b9a565b919050565b60008190506119f882611bae565b919050565b600073ffffffffffffffffffffffffffffffffffffffff82169050919050565b6000819050919050565b6000611a32826119c4565b9050919050565b6000611a44826119d7565b9050919050565b6000611a56826119ea565b9050919050565b82818337600083830152505050565b60005b83811015611a8a578082015181840152602081019050611a6f565b83811115611a99576000848401525b50505050565b6000611aaa82611a1d565b91507fffffffffffffffffffffffffffffffffffffffffffffffffffffffffffffffff821415611add57611adc611ae8565b5b600182019050919050565b7f4e487b7100000000000000000000000000000000000000000000000000000000600052601160045260246000fd5b7f4e487b7100000000000000000000000000000000000000000000000000000000600052602160045260246000fd5b7f4e487b7100000000000000000000000000000000000000000000000000000000600052604160045260246000fd5b6000601f19601f8301169050919050565b60098110611b9757611b96611b17565b5b50565b60028110611bab57611baa611b17565b5b50565b60028110611bbf57611bbe611b17565b5b50565b611bcb816119a6565b8114611bd657600080fd5b50565b611be2816119b8565b8114611bed57600080fd5b50565b611bf981611a1d565b8114611c0457600080fd5b5056fea2646970667358221220f062ddd7ecc86d0028567aa2ae6131f6fd8c3f8394b5a1f074c1ce3a9109e3d964736f6c63430008000033",
  "immutableReferences": {},
  "source": "// SPDX-License-Identifier: MIT\npragma solidity ^0.8;\npragma experimental ABIEncoderV2;\n\nimport \"./DydxFlashloanBase.sol\";\nimport \"./ICallee.sol\";\n\ncontract TestDyDxSoloMargin is ICallee, DydxFlashloanBase {\n  address private constant SOLO = 0x1E0447b19BB6EcFdAe1e4AE1694b0C3659614e4e;\n\n  // JUST FOR TESTING - ITS OKAY TO REMOVE ALL OF THESE VARS\n  address public flashUser;\n\n  event Log(string message, uint val);\n\n  struct MyCustomData {\n    address token;\n    uint repayAmount;\n  }\n\n  function initiateFlashLoan(address _token, uint _amount) external {\n    ISoloMargin solo = ISoloMargin(SOLO);\n\n    // Get marketId from token address\n    /*\n    0\tWETH\n    1\tSAI\n    2\tUSDC\n    3\tDAI\n    */\n    uint marketId = _getMarketIdFromTokenAddress(SOLO, _token);\n\n    // Calculate repay amount (_amount + (2 wei))\n    uint repayAmount = _getRepaymentAmountInternal(_amount);\n    IERC20(_token).approve(SOLO, repayAmount);\n\n    /*\n    1. Withdraw\n    2. Call callFunction()\n    3. Deposit back\n    */\n\n    Actions.ActionArgs[] memory operations = new Actions.ActionArgs[](3);\n\n    operations[0] = _getWithdrawAction(marketId, _amount);\n    operations[1] = _getCallAction(\n      abi.encode(MyCustomData({token: _token, repayAmount: repayAmount}))\n    );\n    operations[2] = _getDepositAction(marketId, repayAmount);\n\n    Account.Info[] memory accountInfos = new Account.Info[](1);\n    accountInfos[0] = _getAccountInfo();\n\n    solo.operate(accountInfos, operations);\n  }\n\n  function callFunction(\n    address sender,\n    Account.Info memory account,\n    bytes memory data\n  ) public override {\n    require(msg.sender == SOLO, \"!solo\");\n    require(sender == address(this), \"!this contract\");\n\n    MyCustomData memory mcd = abi.decode(data, (MyCustomData));\n    uint repayAmount = mcd.repayAmount;\n\n    uint bal = IERC20(mcd.token).balanceOf(address(this));\n    require(bal >= repayAmount, \"bal < repay\");\n\n    // More code here...\n    flashUser = sender;\n    emit Log(\"bal\", bal);\n    emit Log(\"repay\", repayAmount);\n    emit Log(\"bal - repay\", bal - repayAmount);\n  }\n}\n// Solo margin contract mainnet - 0x1e0447b19bb6ecfdae1e4ae1694b0c3659614e4e\n// payable proxy - 0xa8b39829cE2246f89B31C013b8Cde15506Fb9A76\n\n// https://etherscan.io/tx/0xda79adea5cdd8cb069feb43952ea0fc510e4b6df4a270edc8130d8118d19e3f4\n",
  "sourcePath": "/home/anas/Desktop/313flashloan/contracts/TestDyDxSoloMargin.sol",
  "compiler": {
    "name": "solc",
    "version": "0.8.0+commit.c7dfd78e.Emscripten.clang"
  },
  "schemaVersion": "3.4.3",
  "updatedAt": "2021-09-18T00:47:31.394Z",
  "devdoc": {
    "kind": "dev",
    "methods": {},
    "version": 1
  },
  "userdoc": {
    "kind": "user",
    "methods": {},
    "version": 1
  }
}